:100000000C946D050C948A050C948A050C947E233F
:100010000C948A050C948A050C948A050C948A0524
:100020000C948A050C948A050C94912A0C94652BE7
:100030000C948C250C948A050C948A050C948A05E2
:100040000C948A050C948A050C948A050C948A05F4
:100050000C948A050C942F260C948A050C948A051E
:100060000C948A050C948A050C948A050C948A05D4
:100070000C948A050C948A050C948A050C948A05C4
:100080000C948A050C948A050C948A050C948A05B4
:100090000C948A050C948A050C948A050C948A05A4
:1000A0000C948A050C948A050C948A0500050105B8
:1000B0000205030504050505000601060206030600
:1000C00004060506000701070207030704070507E2
:1000D00000080108020803080408050800090109CE
:1000E00002090309040905090000010002000300D8
:1000F00004000500000101010201030104010501E2
:1001000000020102020203020402050200030103CD
:1001100002030303040305030004010402040304AF
:1001200004040504808182838485868788898A8B7C
:100130008C8D8E8F9091929394A0A1A2A3A4A5A63A
:10014000A7A8A9AAABACADAEAFB0B1B2B3B4C0C1B1
:10015000C2C3C4C5C6C7C8C9CACBCCCDCECFD0D107
:10016000D2D3D4004350534C4B000A0A00556E645E
:1001700065660041646A0A004C6F776572005261DF
:1001800069736500426173650A004C41594552002C
:100190000A0A00556E64656600436C6D6B00436C23
:1001A0006D6B00517772740057494E004D4143000A
:1001B000004D4F4445000A0A0035001E001F002074
:1001C0000021002200290014001A00080015001761
:1001D000002B0004001600070009000A00E1001DC2
:1001E000001B00060019000500E300E200E000B17A
:1001F0005D2800A8003500270026002500240023E4
:10020000002A00130012000C0018001C00340033F8
:10021000000F000E000D000B00E50038003700361F
:100220000010001100E700E600E400B25D2C0000C1
:100230000035001E001F00200021002200290014AC
:10024000001A00090013000A002B00040015001614
:100250000017000700E1001D001B00060019000543
:1002600000E300E200E000B15D2800A800350027AF
:100270000026002500240023002A0033001C00185B
:10028000000F000D00340012000C00080011000BDC
:1002900000E50038003700360010000E00E700E6E9
:1002A00000E400B25D2C00000035001E001F00209D
:1002B0000021002200290014001A00090013000583
:1002C000002B0004001500160017000A00E1001DB5
:1002D000001B00060007001900E300E200E000B187
:1002E0005D2800A8003500270026002500240023F3
:1002F000002A0033001C0018000F000D003400120B
:10030000000C00080011001000E50038003700362E
:10031000000B000E00E700E600E400B25D2C0000D8
:100320000001003A003B003C003D003E0035001E4D
:10033000001F0020002100220001001E021F0220D9
:10034000022102220201002E002D002E022F023077
:10035000020100010001000100010001004400430E
:10036000004200410040003F0045002700260025D4
:100370000024002300310227022602250224022342
:1003800002010031003302330030002F0001000170
:100390000001000100010001000100010001000155
:1003A0000001000100010049004600650000000056
:1003B000000100E200E000E1000000390001007AE5
:1003C000007B007C007D00000001000100010001B5
:1003D0000001000100010001000100010001000115
:1003E000002A00B85DB55D5200B45D4B002A004C98
:1003F000004F00510050004E0001000000B75D00AA
:1004000000B65D00000100010001000100010001D3
:1004100000000000000000000000000000005C0080
:1004200000AE5DB05D015D000000000000015D00F8
:1004300000000000000000000000000000000000BC
:1004400000010001000100010001000000000000A7
:10045000000000000000000000000000000000009C
:10046000000000000000000000A900A800AA000091
:100470000000000000AB00AE00AC00000001000175
:1004800000010001000100000000AE00AF00DA0230
:1004900081FFD9F1DB20A4A62EAF00A0C000A1C827
:1004A00000AED580A81FD300408D14200007087F20
:1004B0000807003E5B4F5B3E003E6B4F6B3E001CEF
:1004C0003E7C3E1C00183C7E3C18001C577D571C8F
:1004D000001C5E7F5E1C0000183C180000FFE7C394
:1004E000E7FF00001824180000FFE7DBE7FF0030FB
:1004F000483A060E00262979292600407F0505077F
:1005000000407F05253F005A3CE73C5A007F3E1CD7
:100510001C0800081C1C3E7F0014227F2214005F70
:100520005F005F5F0006097F017F00006689956AB2
:100530000060606060600094A2FFA2940008047EE6
:1005400004080010207E20100008082A1C0800085B
:100550001C2A0808001E10101010000C1E0C1E0C87
:100560000030383E383000060E3E0E060000000017
:1005700000000000005F00000000070007000014FA
:100580007F147F1400242A7F2A1200231308646238
:1005900000364956205000000807030000001C22C6
:1005A0004100000041221C00002A1C7F1C2A000878
:1005B000083E08080000807030000008080808089D
:1005C000000000606000002010080402003E514955
:1005D000453E0000427F40000072494949460021E3
:1005E00041494D33001814127F1000274545453905
:1005F000003C4A4949310041211109070036494967
:10060000493600464949291E000000140000000038
:100610004034000000000814224100141414141483
:10062000000041221408000201590906003E415D04
:10063000594E007C1211127C007F49494936003E18
:1006400041414122007F4141413E007F49494941AA
:10065000007F09090901003E41415173007F0808EC
:10066000087F0000417F4100002040413F01007FA2
:1006700008142241007F40404040007F021C027F5E
:10068000007F0408107F003E4141413E007F090980
:100690000906003E4151215E007F091929460026C6
:1006A000494949320003017F0103003F4040403F78
:1006B000001F2040201F003F4038403F00631408C7
:1006C0001463000304780403006159494D4300009A
:1006D0007F41414100020408102000004141417F58
:1006E00000040201020400404040404000000307B3
:1006F0000800002054547840007F284444380038D3
:100700004444442800384444287F00385454541842
:100710000000087E09020018A4A49C78007F080449
:1007200004780000447D4000002040403D00007FF0
:10073000102844000000417F4000007C04780478C9
:10074000007C0804047800384444443800FC182431
:1007500024180018242418FC007C0804040800480D
:10076000545454240004043F4424003C4040207C62
:10077000001C2040201C003C4030403C004428101D
:100780002844004C9090907C004464544C440000F9
:1007900008364100000000770000000041360800E4
:1007A000000201020402003C2623263C0000000057
:1007B000000000404040F0F8F8FF38FFF8F83FF83C
:1007C000F8FF38FFF8F8F04040400000000000005B
:1007D00080C0C0C0800000C0C08000000080C0C0D9
:1007E00000C0C0000080C0C00000000000C0C0C049
:1007F000C0C000C0C00000000000000000000000F9
:1008000000000000000000000000000000000000E8
:1008100000000000000000000000000000000000D8
:10082000000000000000000000000000C0F0F8FC24
:100830003E1E06010000007F4141417F007F414193
:10084000417F000080C0E07E5B4F5BFEC00000C0C7
:1008500000DCD7DEDEDED7DC00C0000000000000D8
:100860000000000000000000000000000000000088
:10087000000000494949FFFFFFFFE0DFBFBF00BFA5
:10088000BFDFE0FFFFFFFF49494900000000001FF4
:100890003F6060E0BF1F007F7F071E381E077F7F1D
:1008A000007F7F0E1F3B716000000000007F7F0C07
:1008B0000C0C007E7E007F7E0303007F7E03037EA0
:1008C0007E03037F7E000F3E703C063C703E0F00AF
:1008D000327B49493F7E007F7E0303001E3F6969EA
:1008E0006F2600000000000000000000030F1F3F03
:1008F0003C7870600000007F4141417F007F4141B2
:10090000417F00307B7F7830202030787F3B0003B0
:10091000000F7F0F0F0F7F0F00030000000000008B
:1009200000000000000000000000000000000000C7
:10093000000000010101070F0F7F0F7F0F0F7E0FD7
:100940000F7F0F7F0F0F0701010100000000000063
:100950000000000001010000000000000000000095
:100960000000000000000000000000000000000087
:100970000000000000000000000000000000000077
:100980000000000000000000000000000000000067
:100990000000000000000000000000000000000057
:1009A0000000000000000000000000000000000047
:1009B0000000000000000000000000000000000037
:1009C0000000000000000000000000000000000027
:1009D0000000000000000000000000000000000017
:1009E000000000000000000000000000000C0353A5
:1009F000006F0066006C00650000001A034A006F7B
:100A0000007300650066004100640061006D0063D2
:100A10000069006B0000000403090409023B0002A6
:100A20000100A0FA090400000103010100092111DD
:100A300001000122400007058103080001090401AB
:100A4000000103000000092111010001223200070A
:100A5000058203200001120100020000000832FCA0
:100A6000870201000102000105010980A10185033F
:100A700019012AB700150126B700950175108100EC
:100A8000C0050C0901A101850419012AA002150164
:100A900026A002950175108100C005010906A1017B
:100AA000050719E029E71500250195087501810260
:100AB0009501750881010507190029FF150026FF1A
:100AC0000095067508810005081901290595057529
:100AD000019102950175039101C011241FBECFEF52
:100AE000DAE0DEBFCDBF11E0A0E0B1E0EEE1FCE571
:100AF00002C005900D92A83CB107D9F725E0A8ECFB
:100B0000B1E001C01D92A931B207E1F70E94571B65
:100B10000C94F02D0C940000CF93C82F0E940E1956
:100B20008111C3E08C2FCF9108950E940E1960E0CF
:100B3000882309F481C086EB91E00E94E61C60E006
:100B400081EB91E00E94F81C60E080EB91E00E9454
:100B5000F81C8091E90260E080FF1AC08CEA91E005
:100B60000E94F81C609102027091030280910402BD
:100B7000909105020E94A908813089F1882359F0DB
:100B8000823089F160E083E991E00E94E61C08C0B0
:100B900088EA91E0E5CF60E083EA91E00E94F81CEA
:100BA00060E080E991E00E94E61C60E08AE891E064
:100BB0000E94F81C6091FE017091FF01809100027B
:100BC000909101020E94A908833091F180F4823053
:100BD000B0F060E08DE691E00E94F81C15C060E086
:100BE0008EE991E0DBCF60E089E991E0D7CF8430F6
:100BF000D9F0853071F760E083E791E003C060E0F1
:100C000084E891E00E94E61C60E08AE691E00E94A0
:100C1000E61C0E94B82481FB662760F984E691E017
:100C20000E94F81C80E0089560E08EE791E0EACF32
:100C300060E088E791E0E6CF84E291E00E94E61C64
:100C4000F1CFCF93FB01813B2DE5920709F466C0FC
:100C500010F58D37910509F4EDC060F48B379105DF
:100C600009F4F8C008F0D2C08A37910509F402C12E
:100C7000C1E00EC08F3A2DE5920709F441C008F09B
:100C800047C08E3A9D45A1F7C28180E0C1113CC0AA
:100C90008C2FCF910895853B2DE5920709F473C001
:100CA000D0F4C281833B2DE5920709F44DC008F4CE
:100CB00041C08091E9028170CC2309F457C0882398
:100CC00009F44BC084E00E94BF160E94720A80E5BE
:100CD0000E94E309DDCF873B2DE5920709F482C02E
:100CE00008F472C0883B9D4519F6C28181E0CC238F
:100CF00009F486C00E94BF160E94720A8AE2E8CFF9
:100D0000C281CC2329F281E00E94A807C0E0C0CFB5
:100D1000C28182E0CC2309F4BBCFF6CFC28183E04D
:100D2000CC2351F00E94260E45E064E083E00E944F
:100D30001708ECCF84E0F4CF0E94480E45E064E051
:100D400083E00E941708A4CF85E0CC2319F00E940D
:100D5000260EDCCF0E94480E9BCF81E00E94BF167A
:100D60000E94720A80E50E94E30982CF882349F03D
:100D700084E00E94BF160E94790A80E50E94270A3B
:100D800077CF81E0F6CFC2818091E9028170CC23D8
:100D900081F0882339F084E00E94BF160E94720A15
:100DA0008FE496CF81E00E94BF160E94720A8FE402
:100DB000DACF882339F084E00E94BF160E94790AB6
:100DC0008FE4DCCF81E0F8CFC2818091E9028170AD
:100DD000CC2321F08111C1CF8AE47ACF8111D1CF08
:100DE0008AE4CCCFC2818091E9028170CC2321F0CA
:100DF0008111D8CF8DE46CCF8111E4CF8DE4BECFCB
:100E00000E94BF160E94790A8AE2B8CFC28181E0AF
:100E1000CC2341F00E94BF160E94720A86E00E9415
:100E2000E30974CF0E94BF160E94790A86E00E94EF
:100E3000270A2ECFC28181E0CC2331F00E94BF1659
:100E40000E94720A89E1EBCF0E94BF160E94790AC4
:100E500089E1EDCFC28181E0CC2331F00E94BF1641
:100E60000E94720A8BE1DBCF0E94BF160E94790AB2
:100E70008BE1DDCFC28181E0CC2331F00E94BF162F
:100E80000E94720A8DE1CBCF0E94BF160E94790AA0
:100E90008DE1CDCF811108C089EA611101C08AEAD4
:100EA0000E94690A81E008958130E1F78EE46111C2
:100EB000F7CF8BE4F5CF81E008950E9421060895D5
:100EC00008950E9460070895A5E0B0E0EAE6F7E023
:100ED0000C94672D49835A833091D30189819A817B
:100EE000311119C0662399F0222389F00E94420F24
:100EF000182F682F89819A810E941E0F69817A813B
:100F0000812F0E9408162596E3E00C94832D0E9401
:100F1000300F182FF3CF0E94420F69817A81F1CFF1
:100F2000FC01262F408151816281738184810E945E
:100F30006407089581E00895CF93DF93EC0160E0AA
:100F40000E949007BE010E946107DF91CF91089532
:100F5000CF92DF92EF92FF92C12CD12C7601C394F5
:100F600004C0CC0CDD1CEE1CFF1C8A95D2F78C2D26
:100F70000E948F13C701B6010E94BB0DFF90EF9036
:100F8000DF90CF9008958F929F92AF92BF92CF92B1
:100F9000DF92EF92FF920F931F936B017C0181E030
:100FA00090E0A0E0B0E04C015D0104C0880C991C09
:100FB000AA1CBB1C4A95D2F7B501A4014C015D01E6
:100FC00004C0880C991CAA1CBB1C2A95D2F748297E
:100FD00059296A297B2904C0880F991FAA1FBB1FA2
:100FE0000A95D2F78A019B010C211D212E213F2158
:100FF000041715072607370789F48C299D29AE2980
:10100000BF29BC01CD011F910F91FF90EF90DF90A0
:10101000CF90BF90AF909F908F90089580959095BE
:10102000A095B0958C219D21AE21BF21EACF0F93D1
:10103000382F262F6091FE017091FF0180910002F0
:1010400090910102042F432F0E94C3070E94FD0DBF
:101050000F9108950E946B1708950E946F170895CD
:1010600008950E946D0D0E9430082FEF84E39CE0EC
:10107000215080409040E1F700C0000008950E9498
:1010800031080E94532608950E9431080E94642668
:1010900008950F931F93CF93DF938C0161E00E941B
:1010A0009007EC01B8010E945D07811106C080E045
:1010B000DF91CF911F910F910895B801CE010E9449
:1010C0009D218823A1F3B801CE010E94701E8823C0
:1010D00071F3B801CE010E940F21882341F3F8017A
:1010E0008281882361F0CB35FDE5DF0701F158F4FB
:1010F000C115ECE5DE0791F0CF3DDC4591F0C8016C
:101100000E945B07D5CFCD358DE5D80769F090F00B
:10111000C83ADD45A1F70E944408C9CF0E943F08A4
:10112000C6CF0E942D14F7CF0E946813E8CF0E940B
:101130007213E5CF0E947613E2CF0E9469250E94C8
:1011400009090E941A1E08950E940D090E946E2529
:101150000895CF92DF92EF92FF926C01EE24FF246C
:1011600020E0C114D104E104F10419F0C701B60173
:1011700020E1C72ED82EE92EFF24C114D104E104AA
:10118000F10419F0285FC701B6016B017C0154E03E
:10119000F694E794D794C7945A95D1F7C114D10423
:1011A000E104F10419F02C5FC701B6016B017C0169
:1011B00042E0F694E794D794C7944A95D1F7C114C6
:1011C000D104E104F10419F02E5FC701B601969530
:1011D000879577956795672B682B692B09F02F5FAB
:1011E000822FFF90EF90DF90CF90089508950E9496
:1011F000F608089581E008950E94FA080895089578
:10120000CF93C82F0E94F7088C2F0E94FC08CF9123
:10121000089580E00E94000908950E94A4240E947D
:10122000000908950E94A4249091CA01981721F002
:101230008093CA010E9400090895442319F0809107
:10124000D50108959C0143E0369527954A95E1F72D
:10125000620F731F8770992721E030E001C0220FD1
:101260008A95EAF7FB019081922381E009F480E0FE
:101270000895FC01E770FF2721E030E001C0220F54
:10128000EA95EAF733E0969587953A95E1F7FB0101
:10129000E80FF91F8081442319F0282B208308953B
:1012A00020952823FBCF0F931F93CF93DF938C01BF
:1012B000DC0111968C9111978A3048F5CC91C6309B
:1012C00030F5D0E0B6E08B9FC00DD11D1124F801A0
:1012D00042816BEC71E0CE010E941D0940E0882341
:1012E00089F0CE01880F991FFC01E355FF4FE4916F
:1012F000D8011196EC931197FC01E455FF4FE4914E
:10130000EC9341E06BEC71E0CE010E943909DF9172
:10131000CF911F910F910895ABE0B0E0E2E9F9E0C1
:101320000C94682D4F83588769877A878B87611162
:101330000E94B3128A859B85892B29F08F8198851D
:1013400089238F3F39F51E821D8285E0FE01379685
:10135000DE01119601900D928A95E1F78C819D81B5
:10136000892B61F449815A816B817C818D819E81B9
:101370000E94B6112B96E2E00C94842D89819A810B
:1013800089238F3F79F3CE0101960E949A0781113C
:10139000E9CFF0CFCE0107960E945309D4CFFC01CC
:1013A000808191810E947C0F92959F70963051F4BC
:1013B000863F41F08091D50191E089278093D50146
:1013C0009093D4010895CF93C82F8823B9F08CEF60
:1013D0008C0F813AA8F46C2F80910001909101014B
:1013E0000E940425882329F08C2F0E944D120E9410
:1013F000D4128C2F0E9445120E94D412CF910895CE
:1014000080E28C0F883048F4C77081E001C0880FFB
:10141000CA95EAF70E949612EFCFEBE5EC0FE330A6
:1014200040F4F0E0E159FE4F808190E00E94C62434
:10143000E5CFC85AC73110F7EC2FF0E0EE0FFF1FD1
:10144000EF5BFE4F808191810E94DC24D7CF8823FF
:1014500039F19CEF980F913A28F40E944D120E94A6
:10146000D412089590E2980F983050F4877091E06C
:1014700001C0990F8A95EAF7892F0E949C12EFCF3D
:101480009BE5980F933028F490E080E00E94C624FA
:101490000895885A873120F490E080E00E94DC248F
:1014A00008951F93CF93DF93182FEB010E94E30958
:1014B000209739F4812F0E94270ADF91CF911F9145
:1014C00008958FE99FE00197F1F700C00000219790
:1014D000EFCF6AE070E0893311F460E570E00E94BC
:1014E000510A0895882321F00E9496120E94D41276
:1014F0000895882321F00E949C120E94D41208951E
:101500004F925F926F927F92BF92CF92DF92EF9253
:10151000FF920F931F93CF93DF936C01C62F172F6A
:10152000FC01D281058102950F700E948C12E82E79
:101530008823D1F0DD2329F1812F807F803441F091
:1015400090E29C0F9830E8F0803611F4C63FC9F065
:101550008091E90282FF15C082E00E9437130E9449
:101560008C1291E0E82EE926B12EB2949FE0B922C8
:10157000FBE0FB15C0F1EB2DF0E0EE50F24D0C94CA
:10158000522DE12CF1CF012F0F70812F807F11F0B0
:101590000295007FDD2399F0002359F080E28C0F43
:1015A000883010F0C11107C0802F0E9496120E944F
:1015B000D4128C2F76C0802F0E94A612F8CF8C2FC9
:1015C0000E94270A002379F080E28C0F883010F007
:1015D000C11104C0802F0E949C1203C0802F0E9462
:1015E000AC120E94D4122B2D2850330B243031051D
:1015F00020F40E94A4240E940009DD2339F0107F0A
:10160000103611F4C63F11F00E947F12EE2089F0CF
:101610000E94621280FD0DC0F60112820E945C12CF
:101620000E94260EC6010E94310D0E945C120E948B
:10163000480EDF91CF911F910F91FF90EF90DF90B7
:10164000CF90BF907F906F905F904F900895212F23
:101650002F70F22E812F807F803219F0F29480EF6C
:10166000F822CC2381F0C13009F444C0DD2309F411
:101670004CC0002309F443C0F601858180FF99CF57
:101680008F7085833CC08091E90282FD15C0DD2307
:1016900059F0FF2029F08F2D0E9496120E94D4123B
:1016A00080E00E94E3099FCF80E00E94270AFF208C
:1016B00009F499CF8F2D8FCFDD2381F0011106C062
:1016C0000E94B6128F290E94720A8DCF0130C1F795
:1016D0000E94B6128F290E94BD1285CF011106C04B
:1016E0000E94CA128F2D0E94790A7DCF013009F421
:1016F0007ACFF6CFDD2329F0063008F074CF8F2D96
:10170000E2CF053008F06FCFEDCF002359F3C93396
:1017100009F026C1FFEF27EE33E0F15020403040C2
:10172000E1F700C000008C2F0E94270A5CCF812FB8
:1017300086958695837069F0813009F054CF8C2F9F
:10174000912F9370D11102C090E080E00E94DC24C0
:101750004ACF8C2F912F9370D11102C090E080E07E
:101760000E94C62440CF812F837009F043C0D1115D
:101770003ACF2C2F229526952770220F220F6C2FFF
:101780006F70462E512C712C612C022E04C0440C1B
:10179000551C661C771C0A94D2F760E070E0CB0100
:1017A000C4FF0FC06FE070E080E090E004C0660FFF
:1017B000771F881F991F2A95D2F76095709580959D
:1017C0009095212F269526952370642975298629C1
:1017D0009729223049F058F4213019F00E94D10D98
:1017E00002CF0E94BE0DFFCE0E94E40DFCCE0E94EF
:1017F000BB0DF9CE8695DD2311F0812F81708823F2
:1018000009F4F1CE2C2F229526952770220F220F56
:101810006C2F6F70462E512C712C612C022E04C03F
:10182000440C551C661C771C0A94D2F760E070E0EB
:10183000CB01C4FF0FC06FE070E080E090E004C017
:10184000660F771F881F991F2A95D2F760957095AC
:1018500080959095212F26952695237064297529CA
:1018600086299729223049F058F4213019F00E9436
:10187000A10EB9CE0E948E0EB6CE0E94B40EB3CE8B
:101880000E94FD0DB0CE012F0F70DD2329F0802FB7
:101890000E94260E8C2F17CF8C2F0E94790A802F42
:1018A0000E94480EA0CEC23F41F160F4C03FB9F0A3
:1018B000C13F81F0DD2309F447C001117ACE812FA9
:1018C0008F711FC0C33F01F1C43FA1F78091E902AE
:1018D00082FD24C0812F8F71DD2311F312C0DD231F
:1018E00041F0053008F07FCE812F8F710E946C0E81
:1018F0007ACE063008F077CEF7CF812F8F71D111D5
:10190000CFCF0E94260E6FCEDD2329F0812F8F715D
:101910000E94100E68CE0E940A0E65CEDD2351F0A3
:10192000012F0F71802F0E94260E63E0802F0E94EE
:10193000191359CE81E00E943713023008F453CEB8
:1019400082E00E9437134FCE002379F0C93341F46F
:101950009FEFE7EEF3E09150E040F040E1F7E1CE99
:101960008FE39CE90197F1F7DCCE812F8F7198CF3F
:10197000E0E1EC0FE73090F5F0E0E250F24D0C942E
:10198000522DDD2309F42FCE8091D50191E08927D6
:101990008093D50128CED093D50125CE81E08D2727
:1019A000F7CFD11120CE81E0F3CFD1111CCE109210
:1019B000D50119CEDD2319F00E94661214CE0E94C3
:1019C000721211CEDD2339F08091D4018823E1F227
:1019D0001092D40108CE0530B8F205CE8091D40122
:1019E0000023D9F0882341F08091D50191E0892727
:1019F0008093D5011092D401D111DBCDEFE3FCE946
:101A00003197F1F700C000008C2F0E94270A86E072
:101A1000F60111928A95E9F7E6CD882309F4E3CD22
:101A2000D111E1CD8091D50191E089278093D50135
:101A3000CFCF0F931F93CF93DF93EC016881798110
:101A40008A810E94870F8C010E94C70E0E94BA0DE6
:101A5000B801CE010E94800ADF91CF911F910F91B2
:101A60000895CF93DF93EC018B819C81892B29F022
:101A70008881998189238F3F51F4DF91CF91089517
:101A8000CE010E94190DCE010E949C07F6CFCE0117
:101A90000E9449088111F4CF0E948C12882369F3B7
:101AA0008A81882351F38091E90282FFE6CF82E0A8
:101AB0000E943713E2CF90E080E00E94C62490E0BD
:101AC00080E00E94DC240E94B3120E94D412089588
:101AD0000E9455120E945B0D08950E94A3120E945D
:101AE000680D089592959F70963091F058F4925F2A
:101AF0009F70923058F4803F19F030F4883E30F4F3
:101B000081E008959A5FF4CF843FD1F380E0089597
:101B1000883EB0F3813FD1F7F3CFFC018081918102
:101B20000E947C0F0E94720D0895A5E0B0E0EBE9E1
:101B3000FDE00C94682D2596E2E00C94842DA6E03F
:101B4000B0E0E5EAFDE00C94682D2696E2E00C9406
:101B5000842D08950E94A90D08950E94AA0D6093F6
:101B600002027093030280930402909305020E9484
:101B70005B0D089508950E94AD0D08950F931F9376
:101B8000009102021091030220910402309105029B
:101B9000602B712B822B932B0E94AD0D1F910F9107
:101BA00008950F931F930091020210910302209158
:101BB00004023091050260237123822393230E9443
:101BC000AD0D1F910F9108950F931F930091020285
:101BD00010910302209104023091050260277127C1
:101BE000822793270E94AD0D1F910F9108950E94A7
:101BF000A90D08950E94F70D08950E94FA0D6093B3
:101C0000FE017093FF0180930002909301020E94F5
:101C10005B0D089560E070E0CB010E94FD0D08951A
:101C20000F931F9341E050E060E070E08A019B0158
:101C300004C0000F111F221F331F8A95D2F7C9015C
:101C4000B8010E94FD0D1F910F9108950F931F93EE
:101C500041E050E060E070E004C0440F551F661F93
:101C6000771F8A95D2F78091FE019091FF01A09194
:101C70000002B09101028A019B01082B192B2A2B2B
:101C80003B2BC901B8010E94FD0D1F910F910895D2
:101C90000F931F9341E050E060E070E004C0440FF8
:101CA000551F661F771F8A95D2F7CB01BA01609541
:101CB0007095809590950091FE011091FF01209103
:101CC00000023091010260237123822393230E943A
:101CD000FD0D1F910F9108950F931F9341E050E068
:101CE00060E070E004C0440F551F661F771F8A959F
:101CF000D2F78091FE019091FF01A0910002B09176
:101D000001028A019B01082719272A273B27C901BD
:101D1000B8010E94FD0D1F910F9108950F931F931D
:101D20000091FE011091FF0120910002309101020B
:101D3000602B712B822B932B0E94FD0D1F910F9115
:101D400008950F931F930091FE011091FF012091C0
:101D500000023091010260237123822393230E94A9
:101D6000FD0D1F910F9108950F931F930091FE0198
:101D70001091FF012091000230910102602771272C
:101D8000822793270E94FD0D1F910F9108950895BA
:101D9000262F277091E001C0990F2A95EAF723E0DA
:101DA000769567952A95E1F725E0269FF001279F14
:101DB000F00D1124E40FF51F50E040E0682F70E0B3
:101DC0008191DF0111979B01042E02C03695279562
:101DD0000A94E2F7217021952827292328272C939C
:101DE0004F5F5F4F4530510559F70895A82FA770F1
:101DF00023E0969587952A95E1F725E0289FF00145
:101E0000299FF00D1124E60FF71F50E040E080E01D
:101E1000219130E00A2E02C0369527950A94E2F708
:101E200021703327042E01C0220F0A94EAF7822B77
:101E30004F5F5F4F4530510559F70895262F9A306F
:101E400070F4863060F4682F70E086E0989F600D33
:101E5000711D112446ED51E0822F0E94C80E089595
:101E6000292F9A3068F4863058F490E066ED71E0DE
:101E700036E0239F800D911D11240E94F60E0895D7
:101E800080E00895B0E0A0E0E8E4FFE00C94612D6C
:101E90008C01C090FE01D090FF01E0900002F09014
:101EA00001028091020290910302A0910402B0917C
:101EB0000502C82AD92AEA2AFB2ACFE1D0E0BC2EA3
:101EC000D701C6010C2E04C0B695A79597958795A6
:101ED0000A94D2F780FD09C0219788F7B12C8B2D89
:101EE000CDB7DEB7E9E00C947D2DB8018C2F0E94B0
:101EF0002316019789F3F3CFCF93DF93EC010E9470
:101F0000420FBE010E942316DF91CF9108951F93C7
:101F1000CF93DF93EB019091D301992339F0CB015B
:101F20000E947C0FDF91CF911F910895882369F063
:101F3000CB010E94420F182F682FCE010E941E0F66
:101F4000BE01812F0E942316EDCFCB010E94300FDE
:101F5000182FF6CF1F93CF93DF93C091060216E0A0
:101F6000809107028C1304C0DF91CF911F910895D7
:101F7000D0E01C9FF0011D9FF00D1124E85FFD4F84
:101F80004081518162817381848195810E949F0D7E
:101F90002196C770E5CF4091380250913902609187
:101FA0003A0270913B0280913C0290913D020E9466
:101FB0009F0D08951F93CF93DF9380913D02807F03
:101FC00009F049C080913A02882309F444C0809105
:101FD0000602C09107026091380270913902A09107
:101FE0003B02B0913C02D62FD72316E0C81799F1D7
:101FF00090E0109711F0DF3F19F401968770F6CF4B
:10200000189F9001199F300D1124F901E85FFD4FD1
:1020100041814713F2CF40814613EFCF42814111F6
:10202000ECCF438154814A1B5B0B4436510528F7A2
:1020300080913D028F70806180933D02F901E35FE2
:10204000FD4F80818F708061808388E392E00E94E1
:10205000310D0E94AA0FDF91CF911F910895A1E148
:10206000B0E0E5E3F0E10C94602D8C0185E0F8012F
:10207000DE011D9601900D928A95E1F7F801E2804C
:1020800088E3C82E82E0D82E60913B0270913C021A
:102090006115710509F44EC1909138022091390201
:1020A000892F82238F3F09F445C140815181A3804C
:1020B000B480F0903A02F501E61BF70BFF2009F41B
:1020C000EAC080913D02382F307FE436F10508F0F8
:1020D000A3C031116DC0FE2C251316C0941314C07B
:1020E000E11012C08F70806180933D020E94CB0F7F
:1020F000C6010E94310D80913D02F80185838F2D2C
:102100006196EAE00C947C2DA114B10429F0842F8F
:1021100085238F3F09F027C180E0F82FF170DF2E73
:1021200080FF3CC0809106022091070236E08213B6
:1021300015C04D875E878D859E850E947C0F292F57
:1021400022952F702230F0F0243018F59F70F1F0B6
:10215000F8019581907FD1F4D12C1EC090E0389F7A
:10216000F001399FF00D1124E85FFD4F6181651387
:1021700006C06081641303C06281E6120FC001963D
:102180008770D5CF9F7011F0882331F3805E88303F
:1021900018F3C8010E94310DFD2CB1CFEE2009F4D7
:1021A000AECF80913D02816080933D02F12CA7CF9C
:1021B000251306C0941304C0F801EE2009F487C06B
:1021C000C8010E948D0D882319F1EE2009F180913C
:1021D0003D02803270F02091380230913902388708
:1021E0002F831986BB86AA868C87CE0107960E940C
:1021F000310D86E0F801A8E3B2E001900D928A95D6
:10220000E1F70E94DA0F0E94CB0FFF24F39477CFFF
:10221000C8010E94310DF9CF311113C07A2DB98A4E
:10222000A88A6E2D89890E94950D88E392E00E940C
:10223000310D86E0F60111928A95E9F70E94CB0FE5
:10224000B5CF25130FC094130DC0E1100BC0F801DA
:102250008583C8010E94310D86E0F60111928A95AE
:10226000E9F74DCFC8010E948D0D882389F2EE2039
:1022700079F280913D02803208F4BBCF2091380280
:10228000309139023A8329831B82BD82AC828E83CE
:10229000CE010196ACCFE436F10508F03EC0FE2C2D
:1022A000EE2009F4B5CF25132AC0941328C08091DD
:1022B0003D0280FD1BC0982F907FC1F0F8018583FF
:1022C000903F31F0982F907F905F8F70892B85839E
:1022D000C8010E94310D86E0F801A8E3B2E0019048
:1022E0000D928A95E1F70E94CB0F09CF86E0F801A5
:1022F000A8E3B2E001900D928A95E1F700CFC80102
:102300000E948D0D811175CF80913D028160809377
:102310003D02C8010E94310DF2CE7A2DB98AA88AF9
:102320006E2D89890E94950D86E0F60111928A959D
:10233000E9F7D9CFEE2009F46BCFC8010E948D0DCB
:10234000F82E882309F464CF86E0F801A8E3B2E010
:1023500001900D928A95E1F788E392E00E94CF09FF
:102360000E94DA0FC0CF81E08E25D7CEACE0B0E07E
:10237000ECEBF1E10C94672D4F83588769877A87DE
:102380008B879C87CE0107960E942F10882369F0C7
:102390008A859B85892B39F04F815885842F852329
:1023A0008F3F09F06BC016E05FC086E0FE013796F4
:1023B000DE01119601900D928A95E1F78A859B8541
:1023C000892B89F38F81988589238F3F61F3209131
:1023D000070230E0C90101968770992740910602F3
:1023E0004817190671F40E946D0D109207021092A1
:1023F000060286E0E8E3F2E0DF011D928A95E9F744
:10240000D2CF96E0929FD001939FB00D1124A85F88
:10241000BD4FFE01319601900D929A95E1F78093A0
:1024200007020E94AA0FBFCF819FC0011124885FBD
:102430009D4F0E942F108823E9F0E09106021E9F15
:10244000F0011124E85FFD4F408151816281738169
:10245000848195810E949F0D8091060290E00196F3
:102460008770992780930602809106029091070257
:102470008913DACF2C96E3E00C94832D69857A8555
:102480008B859C850E949F0D8ECF682F80910001C7
:10249000909101010E943A250895682F80910001D2
:1024A000909101010E943D25089580910001909135
:1024B00001010E94402508958091470285958595E8
:1024C00085950895809147028770089582E08093F2
:1024D000460281E08093D501089510924602109241
:1024E000D501089580914602823021F481E08093E5
:1024F00046020895833011F40E946D120895809170
:102500004602823021F483E08093460208958130B0
:1025100011F40E946D12089590914702977081E026
:1025200009F480E00895809152020895909152023A
:10253000892B80935202089580959091520298239E
:102540009093520208951092520208959091510270
:10255000892B809351020895809590915102982380
:10256000909351020895109251020895809148026B
:10257000089508950E94B91208959091E90292FF7A
:1025800008C090914802981721F0809348020E9459
:10259000BA12089580914802882329F010924802C7
:1025A00080E00E94BA120895CF93DF93E09100017A
:1025B000F0910101809152028083E0910001F0913D
:1025C0000101808190915102892B80839091480272
:1025D000992381F0E0910001F09101018081892B24
:1025E000808380910001909101010E94F224811169
:1025F0000E94CA12C0910001D091010148E050E050
:102600006EE372E0CE010E94982D892B59F088E08C
:10261000FE01AEE3B2E001900D928A95E1F7CE01A2
:102620000E94BB24DF91CF91089508950E94151355
:1026300008959091E90292FF11C098E0899F90015E
:102640001124622B609347020E94260E809147025C
:102650008595859585950E94161308950E94260EEE
:1026600008951092470280E00E94161308959091F9
:1026700047028095892380934702282F277091F481
:10268000282F082E000C330B9217130659F0909147
:10269000E90292FF07C08595859585950E94480EB1
:1026A0000E94311308959091E90292FB222720F9AC
:1026B000281769F080FB92F99093E9028091E80273
:1026C0009091E9020E94A31382E00E9437130895BB
:1026D0008091E90282FB882780F991E089270E9496
:1026E0005313089581E00E945313089580E00E94DF
:1026F0005313089590E080E00E94B62D21E0883EBB
:102700009E4F09F020E0822F089582E090E00E9421
:10271000AE2D089583E090E00E94AE2D0895682FBD
:1027200083E090E00E94BC2D0895CF9384E090E078
:102730000E94AE2DC82F82E290E00E94AE2D982F0D
:102740008C2FCF910895CF93C92F682F84E090E00C
:102750000E94BC2D6C2F82E290E00E94BC2DCF9194
:102760000895AB01BC018FE090E00E94CE2D08954A
:10277000AB01BC0183E190E00E94CE2D089560E0A2
:1027800070E0CB010E94B813089560E070E0CB01C7
:102790000E94B1130E94BF13089568EE7EEF90E08F
:1027A00080E00E94DA2D60E082E090E00E94BC2D83
:1027B00060E083E090E00E94BC2D10920202109233
:1027C0000302109204021092050260E084E090E09F
:1027D0000E94BC2D64E082E290E00E94BC2D60E08B
:1027E00085E090E00E94BC2D60E086E090E00E94D1
:1027F000BC2D6FEF87E090E00E94BC2D40E050E0E0
:10280000BA0188E090E00E94CE2D60E08DE090E07B
:102810000E94BC2D40E050E0BA0188E190E00E94A7
:10282000CE2D60E087E190E00E94BC2D40E050E0BA
:10283000BA018CE190E00E94CE2D70E060E080E271
:1028400090E00E94DA2D40E050E0BA0188E190E08B
:102850000E94CE2D0E94C51308950E94CD130895A5
:10286000682F8EE090E00E94BC2D08950E94F8250C
:10287000609365027093660280936702909368028A
:10288000609361027093620280936302909364028A
:1028900008950E94F8256093650270936602809304
:1028A00067029093680260935D0270935E0280936A
:1028B0005F02909360020895089508950E945D1448
:1028C000089508950E946114089582E497E10E949A
:1028D0009A240E945C140E945E1408950E940E19AE
:1028E0000895089508950E9471140E947214089525
:1028F0000E9445170E94FF0808950E94E3250E9448
:1029000002170E9429190E9472180E9478140E94CE
:10291000641B80E00E94BC1B0E94B71F0E943319F9
:102920000E9462140895AAE0B0E0E9E9F4E10C9491
:102930005F2D0E949518C82E81110E94361483E5E0
:10294000A82E82E0B82E10E000E0902E802F0E948A
:102950007217E82EF501F1905F01F816B9F1809138
:10296000690281FD0E9478178F2D8E25D12CFF24BE
:10297000F394982F9F2129F10E946E14882399F0D7
:10298000DE829F82EF2081E009F480E088870E9448
:10299000EC258160782F9A8789874E815F816885D1
:1029A0008A850E948C09F801ED5AFD4F8081F82636
:1029B000F08281E0C11001C080E02A96EBE00C9427
:1029C0007B2DD394FF0CF6E0DF12D3CF0F5F1F4FA8
:1029D0000A30110509F0B9CF8FEF89838A831B82F2
:1029E0000E94EC258160782F9D838C8349815A81D8
:1029F0006B818D810E948C09DCCFCF93DF930E9485
:102A00009314D82F0E940E190E943B20C82F8111C9
:102A10000E9449140E94381ED11101C0C1110E94A8
:102A2000FE1C0E941209DF91CF910895CF93DF938E
:102A30000E942816EC01811522E59207E8F5811520
:102A400031E5930708F0AFC0883E910510F5803E50
:102A5000910570F5883A910570F4853A910508F072
:102A60007BC08130910521F1009711F1049700F5A9
:102A7000D0E0C0E01DC08F3B9105D0F7C85AD0E030
:102A8000CC0FDD1FCE58DE4F0990D881C02DD46405
:102A90000FC0811540E5940708F069C0C11580E4B6
:102AA000D80708F061C0CE019A9581159F4100F7C3
:102AB000CE01DF91CF910895811536E5930718F582
:102AC000811545E5940708F086C0C11584E5D8074F
:102AD00008F07CC09C2F969596959E012370332715
:102AE000C115D34508F464C0C1E0D0E002C0CC0FEA
:102AF000DD1F2A95E2F730E2939FC0011124C82B15
:102B0000D92BDA68D5CFC11589E5D80768F4C11586
:102B100098E5D90708F069C0C11527E5D20708F084
:102B2000A7CFDD27D066C4CFC1153AE5D30708F497
:102B300061C0CE0190568115904208F099CF8D2F3B
:102B40008F710E94BF1690E0982F882788279F7169
:102B50009C012C2BE90147C0C55AD0E0C056DE4F7E
:102B6000C881D0E0D064A4CFDF70D06AA1CFE4E008
:102B700096958795EA95E1F783702C2F26952695F3
:102B8000237090E2299F90011124382B8C2F8370A1
:102B9000C1E0D0E002C0CC0FDD1F8A95E2F7C22B66
:102BA000D32BDC6885CFD82FCC27C16FD06A80CFDC
:102BB000C1E0D0E002C0CC0FDD1F2A95E2F720E291
:102BC000929FC0011124C82BD92BEBCFDC2FCC272F
:102BD000C46FD06A6DCF0E94BF16C82FD0E0DC2F23
:102BE000CC27CC27DF71D06263CFDC2FCC27C06F1E
:102BF000D06A5ECF8C2F8F700E94BF1634E0D695BE
:102C0000C7953A95E1F7CF709C2FEC01D06950CF72
:102C1000972F7A30A8F4663098F470E026E0929FFF
:102C2000600D711D1124FB019CE3899FE00DF11DD6
:102C30001124EE0FFF1FE754FE4F859194910895E4
:102C400080E090E008950E9408160E9416150895ED
:102C500082389105B1F1B0F48133910509F475C062
:102C600048F48932910509F469C08A32910509F462
:102C700073C008958533910509F459C089339105CE
:102C800001F10895833E9105A9F138F4803E910544
:102C9000F9F0823E910549F10895863E9105A9F12A
:102CA000873E9105C9F1843E910519F52091E9020D
:102CB00021FF1FC08091E80284FD14C087EE90E0E0
:102CC00008952091E8022370A1F080EE90E008952D
:102CD0002091E80220FD47C03091E90230FF09C091
:102CE00024FF44C090E080E004C02091E80222FD6F
:102CF000F7CF08952091E80222FD3BC03091E90210
:102D000030FDE3CF24FFF5CFEDCF2091E80223FF84
:102D1000F0CF24FDE7CFD2CF2091E80223FD2CC0D5
:102D20003091E90231FFEECF84EE90E008952091DA
:102D3000E80225FFDECF89E290E008952091E802C5
:102D400025FFD7CF85E390E008952091E80226FF84
:102D5000D0CF8AE290E008952091E80226FFC9CF03
:102D600081E390E0089589E390E0089583EE90E098
:102D7000089582EE90E0089586EE90E00895909197
:102D8000E80292FF06C0282F28712830F9F4877FC7
:102D9000846093FF06C0282F28712831F1F4877EC4
:102DA00084612091E90220FF06C0382F3871383045
:102DB000D9F4877F816021FF06C0282F2871283130
:102DC000D1F4877E816194FD877E0895282F247138
:102DD0002430F9F68B7F8860DCCF282F24712431D2
:102DE00001F78B7E8861DDCF382F3171313019F7D3
:102DF0008E7F8860E0CF282F2171213121F78E7ED0
:102E00008861E1CF1092E4021092E5021092E6028E
:102E10001092E7020895CF92DF92EF92FF926B013A
:102E20007C010E940E1981110EC00E94F825C61A5D
:102E3000D70AE80AF90AC092E402D092E502E092C9
:102E4000E602F092E702FF90EF90DF90CF900895B6
:102E50000F931F930E940E19882329F00E94F825D2
:102E60001F910F9108950E94F8250091E40210919E
:102E7000E5022091E6023091E702600F711F821F88
:102E8000931FEECF80E0089508950E947A13811178
:102E900002C00E942D140E948513809369020E9433
:102EA00095139093E9028093E8020E9444170E94D0
:102EB0008A13682F70E090E080E00E94BB0D609163
:102EC000FE017091FF0180910002909101020E9429
:102ED000FA0D089508950E946A17089508950E94B2
:102EE0006E170895E82FF0E0EB50FD4F80810895B4
:102EF000089580EA8A95F1F7089500C008950E9428
:102F00007917089508950E9482170895A5E0B0E00A
:102F1000ECE8F7E10C94642D0E940E19F82E6091F4
:102F2000FF02882309F440C085E0E82E8E010F5F80
:102F30001F4FF8018E2D11928A95E9F7862F90E0A8
:102F4000B8018B509D4F0E9441198823B9F08091A0
:102F5000EA0290E045E050E0B8018B509D4F0E949E
:102F6000982D21E020936A02892B91F4F12C0E9484
:102F70002D088F2D2596E6E00C94802D80916A0215
:102F80008823A1F3F8011192EA94E9F710926A02FA
:102F9000A091EA02B0E0AB50BD4F85E0F80101908E
:102FA0000D928A95E1F7E3CF70E06B507D4F8091F1
:102FB000EA0290E08B509D4F0E94C8190E9483172F
:102FC000D8CFF894E82FE295EF70F0E031A1282FE8
:102FD0002F7081E090E001C0880F2A95EAF7982FC2
:102FE0009095932391A392A1892B82A3789408951D
:102FF000CF93DF93C9EAD1E089918F3F11F00E940E
:10300000E11781E0CE3AD807B9F7C3EAD1E0899158
:103010008F3F11F00E94E11781E0C93AD807B9F754
:10302000DF91CF910895B0E0A0E0E9E1F8E10C94E0
:10303000622DEC01D62E062F10E0C80187559E4F59
:103040007C01FC0180818F3F09F445C0F894E82F92
:10305000E295EF70F0E091A18F7021E030E001C0C7
:10306000220F8A95EAF7892F822B81A382A12095CE
:10307000282322A378940E947D17E3EAF1E049EA2D
:1030800051E031E0C12C21912F3F51F1A22FA295A7
:10309000AF70B0E090968C9190E02F7002C0959543
:1030A00087952A95E2F780FD1BC0832FC82A330F2E
:1030B0004E175F0741F7F70180818F3F11F00E94A3
:1030C000E11761E0C11001C060E08D2D0E947F1703
:1030D000C00FD11FC882CDB7DEB7E8E00C947E2DBB
:1030E00080E0E4CF809102018091020195E081119E
:1030F00090E09093FF0285E0891B8093EA020E9492
:10310000F8178AE0E5EFF2E0DF01982F1D929A951B
:10311000E9F7EBEEF2E0DF011D928A95E9F785E031
:103120000E94D8180E942A080895AAE0B0E0EBE9AE
:10313000F8E10C94642D8E010F5F1F4F8AE0F801B7
:1031400011928A95E9F7F12C6F2DC8010E9413188E
:10315000F394F5E0FF12F8CF4AE050E0B8018BEEAF
:1031600092E00E94982D7C0121E0892B09F420E057
:10317000E114F10441F08AE0F801ABEEB2E0019015
:103180000D928A95E1F76091FF0270E06B507D4FE0
:1031900045E08BEE92E00E94D91881E090E0E114C6
:1031A000F10411F40E9486172A96E6E00C94802D13
:1031B0000895FF920F931F93CF93DF93F82E092F5B
:1031C000162FD72FC42F222349F081E080936D0260
:1031D0000E94EC2590936C0280936B0280916D02AB
:1031E0008823A1F080916B0290916C020E940426CA
:1031F000059760F0EF2DF02FA12FBD2FCE0FDF2F01
:10320000D11DEC17FD0739F410926D02CDB7DEB772
:10321000E5E00C94812D81918D93F3CF8091700224
:10322000811107C00E94112D882351F081E0809305
:10323000700281E090917002913009F080E0089571
:1032400082E0809370020E940C2DF3CF0E940E1931
:1032500008950E942619809302010E940E1981117F
:103260000E94771908950E940E19811102C00E94D0
:103270007A19089581E0909171029A3008F080E007
:1032800008950F931F93CF93DF93EC018B018091EF
:1032900071028A30B8F4B801CE010E94C519C82F56
:1032A000811122C0809171028F3FB9F40E94EC25F8
:1032B00090936F0280936E028C2FDF91CF911F91BC
:1032C0000F91089580916E0290916F020E940426E2
:1032D000843F914000F7C0E0EFCF8F5F8093710291
:1032E0008A3020F7C1E0E8CF10927102E5CF0E944A
:1032F000382308950E943B230895B0E0A0E0E3E85E
:10330000F9E10C94632D7901C82F880FDD0B41156D
:103310005105A9F0FE0193E0EE0FFF1F9A95E1F72A
:10332000ED5FFE4F818192818E589D4F208130E06C
:103330004217530708F49A01A9010E94A52DCE0156
:103340000E942424D82E8823D1F001151105B9F04C
:1033500083E0CC0FDD1F8A95E1F7FE01ED5FFE4FA4
:10336000438150E00417150708F4A801CD5FDE4F34
:103370006C817D816E587D4FC7010E94A52D8D2DDA
:10338000CDB7DEB7E7E00C947F2D0E94E11A0895D7
:103390000E94021B0895A4E0B0E0E1EDF9E10C9475
:1033A000662D60918F0270919002809191029091B0
:1033B00092020E94132611E0643671058105910581
:1033C00018F10E9428176E5F7F4F8F4F9F4F6983C0
:1033D0007A838B839C8310E000E030E020E044E0BF
:1033E00050E0BE016F5F7F4F84E00E947D19182F6F
:1033F000882351F00E94F82560938F027093900209
:103400008093910290939202812F2496E4E00C9491
:10341000822DA1E0B0E0EFE0FAE10C945D2D762E74
:103420004A015901680101E010E09E012F5F3F4F02
:1034300050E040E070E060E00E947D19182F882382
:1034400099F1F40160817181828193810E94132638
:10345000643671058105910500F18701950150E001
:1034600040E070E060E0872D0E947D19B82EB70122
:10347000C6010E94651B11E09981981310E01B2181
:1034800039F00E94F825F40160837183828393836D
:10349000812F2196EDE00C94792DB701C6010E9491
:1034A000651B99818913D9CFA701B601C5010E9477
:1034B000A52DEECFA1E0B0E0E0E6FAE10C94642D9A
:1034C0000091AE011091AF01095F1F4FEE24E3940C
:1034D000F12C9E012F5F3F4F4BE852E063E082E00A
:1034E0000E94091A182F882321F0CE0101960E940C
:1034F000CB20812F2196E6E00C94802DA5E0B0E052
:10350000E4E8FAE10C94622D6B010091AE01109198
:10351000AF010F5F1F4F85E0E82EF12C9E012F5F5A
:103520003F4F47E852E061E080E00E94091A88239B
:1035300049F095E0FE013196A2E8B2E001900D92CB
:103540009A95E1F795E0E2E8F2E0D60101900D925C
:103550009A95E1F72596E8E00C947E2DB0E0A0E086
:10356000E4EBFAE10C94602D7C015B016A010E949E
:103570003A1901E010E0882311F00AE010E0C1E000
:10358000D0E0B501C701F6010995811104C021966B
:103590000C171D072CF4CDB7DEB7EAE00C947C2D98
:1035A000CC9F9001CD9F300D300D112490E080E034
:1035B00045E34A95F1F70000019682179307C1F79A
:1035C000E0CF0F931F93CF93DF93EC018B014EE776
:1035D0005AE10E94AE1A811106C080E0DF91CF91BE
:1035E0001F910F9108954AE55AE1B801CE010E945A
:1035F000AE1A882391F34BEC59E1B801CE010E9439
:10360000AE1AECCFA1E0B0E0E8E0FBE10C94662D4F
:103610000091AE011091AF01C801019625E0FB01B8
:10362000DC0101900D922A95E1F765E070E00E94BF
:10363000651BF8018083CE0101960E94C02089811C
:10364000F801878361E070E0CE0101960E94651B5E
:10365000F8018683608571858285938500917E025D
:1036600010917F02209180023091810260177107D2
:103670008207930751F060937E0270937F028093DC
:103680008002909381020E940B172196E4E00C9433
:10369000822D0E94E7270E947D140E94F42708953E
:1036A0000E94F9270E94FD140E94132808950E9489
:1036B00085250E94CD270E9465140E94491B0E9407
:1036C000501B0E947314FBCF0895FC01680F791FF3
:1036D0008FEF91E36E177F0709F4089521918227F8
:1036E00028E030E087FF06C0880F89272150310984
:1036F000C9F7F0CF880FFACFB0E0A0E0E2E8FBE135
:103700000C94622D6C017B0164E670E088E70E94F6
:10371000F521EC0197FD12C010E000E0F601E00F8A
:10372000F11F849164E670E00E946322EC01892B12
:1037300029F40F5F1F4F0E151F0581F70E94DA2233
:10374000CE01CDB7DEB7E8E00C947E2D0895E0E021
:10375000F3E080E092E0DF019C011D9221503040B7
:10376000E1F7F0930705E09306058FEF9FEF909345
:10377000BF028093BE0208950E94A61B0E948C0582
:103780008093BA0280FD0FC080E88093B9020E9446
:10379000EF216DE070E080EA94E00E947C1B892BB1
:1037A00021F080E0089580E2F0CF8091BA0263E0DA
:1037B00070E081FD26C08DE994E00E947C1B892B7E
:1037C00081F76DE070E08DE894E00E947C1B892B0E
:1037D00041F70E94F825605A75418F4F9F4F6093C3
:1037E00002057093030580930405909305050E94DC
:1037F000A71B81E08093BD028093BC021092BB02A4
:1038000008958AE994E0D9CF2091B90236E0839FE8
:10381000C0011124629F800D911D1124811522E0A9
:10382000920714F090E080E080509D4F9093070540
:1038300080930605089520910605309107052A5FBB
:1038400032404091B902642F70E0C9010E942A2DD4
:10385000481B463010F4240F311D211582E0380733
:1038600010F030E020E020503D4F309307052093CA
:10387000060508951F93CF93DF93162F8A3039F4EE
:1038800081E00E94B31CDF91CF911F9108958D308C
:1038900011F480E0F6CFC0910605D091070596E0BF
:1038A000FE01A3E9B2E001900D929A95E1F7803E06
:1038B000B8F086E0FE0111928A95E9F711111CC05B
:1038C000C0910605D091070546E050E0BE0183E9AE
:1038D00092E00E94982D892BE9F40E941B1CD3CF03
:1038E000F6E08F9FB001112463557B4F46E050E016
:1038F000CE010E948F2DE2CFE0910605F0910705E1
:103900009F012A5F3F4F2E173F07D1F2808180959C
:103910008193F9CFC050D340CE0125E0969587958D
:103920002A95E1F721E030E0A90102C0440F551FBC
:103930008A95E2F7CA014091BE025091BF02842BE2
:10394000952B259645E0D695C7954A95E1F702C097
:10395000220F331FCA95E2F7822B932B9093BF025D
:103960008093BE02BACFCF93382FE0910605F09135
:103970000705E050F3402091B902622F70E0CF01BB
:103980000E942A2D281B822F332369F066E00E94B3
:103990001E2DC82FC15010F4CF91089560E080E231
:1039A0000E943A1CF7CF9F01280F311D211532408C
:1039B00018F080E0F0E0E0E08E0F9F2F911D805026
:1039C0009D4F9093070580930605E6CF1F93CF93F5
:1039D000DF93EC01162FFE018491811104C0DF9169
:1039E000CF911F910895612F0E943A1C2196F3CF29
:1039F0000E94E61C81E00E94B31C08958091BD02E4
:103A0000811103C08091BC0208950E94F825605A7C
:103A100075418F4F9F4F609302057093030580930C
:103A20000405909305058091BC028111EBCF62E003
:103A300070E08BE894E00E947C1B892B19F781E0F1
:103A40008093BC02DFCF2F923F925F926F927F9262
:103A50008F929F92AF92BF92CF92DF92EF92FF929E
:103A60000F931F93CF93DF938091BD02882369F05A
:103A70002091BE023091BF022115310531F08091B5
:103A8000BB0261E070E0882399F0DF91CF911F9134
:103A90000F91FF90EF90DF90CF90BF90AF909F90ED
:103AA0008F907F906F905F903F902F9008958F5FE1
:103AB000082F10E01B01082E02C0220C331C0A94B0
:103AC000E2F7A90142215321452B89F39091BA02D3
:103AD00090FD44C08295880F807680932D019801D7
:103AE000369527953695279520933001815E8093F2
:103AF0002E011092310124E630E047E050E06BE205
:103B000071E088E70E949222892B09F0BECFA801BC
:103B100025E0440F551F2A95E1F78091BA0280FDF8
:103B20002BC040505D4F04E610E020E230E060E43E
:103B300088E70E94B322892B09F0A7CF0E94FE1CC0
:103B4000E101C095D0958091BE029091BF02C8233B
:103B5000D923D093BF02C093BE0297CF880F880F9E
:103B6000880F80932D0110923001895F80932E0180
:103B700083E080933101BFCFE9E9F2E080E2DF0129
:103B80001D928A95E9F7A4EBB1E000EB11E088EB18
:103B9000C82E81E0D82E97E0592E772473948D910A
:103BA000E80129918E01240F352F311D20503D4F02
:103BB000E82FF0E0E756FD4F90E080E0652C681AB2
:103BC000872C082E01C0880C0A94EAF77901A12CF1
:103BD000E701B9907E01B820662D6A196770962EAC
:103BE000062E000C770BDB2D01C0DD0F9A94EAF74F
:103BF0007195619571096770772701C0B6946A95D0
:103C0000EAF7BD2A6081962E9B289082A39468E0F3
:103C1000A612DECF019631968830910579F6CA1644
:103C2000DB0609F0BCCF04E610E020E230E049E911
:103C300052E07DCF8091BC029091BD02911103C0F2
:103C400091E089270895882369F062E070E089E8AF
:103C500094E00E947C1B892B19F08091BC0208958E
:103C60001092BC028091BC02EBCF0E949505089592
:103C70000F931F938091BD02882379F180910005F5
:103C8000909101050E940426C29760F00E94EC25E5
:103C9000909301058093000560E080E00E94041C81
:103CA0000E94351E0E94231D8091BC028823A9F02A
:103CB0000E94F8250091020510910305209104054A
:103CC00030910505601B710B820B930B6F3F7F4F8B
:103CD0008F4F9F4710F40E941A1E1F910F91089555
:103CE000CF93DF93EC01FB018281882309F433C178
:103CF000C430FDE5DF07C0F5CB3F9CE5D90730F4C4
:103D00009E0122503C4524313105B0F50E949513A7
:103D10009093E9028093E802C1318CE5D80709F459
:103D2000EEC008F069C0C930ECE5DE0709F4D5C083
:103D3000C8F5C5308CE5D80709F4C7C000F5C33015
:103D4000ECE5DE0709F4B9C008F0BBC0C230DC45C1
:103D500009F4ADC08091E8029091E9020E94A3139A
:103D60000E946D0D80E008C0C236EDE5DE0771F2FD
:103D7000C63AFDE5DF0751F2DF91CF9108958091BA
:103D8000E8028062C7309CE5D90709F493C08091AE
:103D9000E8028061C830DC4508F48CC08091E802FC
:103DA000806488C08091E8028B7FCD30FCE5DF071E
:103DB00009F480C098F48091E8028E7FCB309CE5B6
:103DC000D90709F477C08091E8028C60CC30DC45DB
:103DD00008F470C08091E8028D7F6CC08091E80289
:103DE0008F7ECF30FCE5DF0709F464C008F47BC0A8
:103DF0008091E8028F7D5EC0CE3F9CE5D90709F433
:103E00007AC050F5C531FCE5DF0709F486C098F4A7
:103E10008091E802837FC3319CE5D90709F44AC049
:103E200008F471C00E946D0D9091E802892F97FBF4
:103E300087F980583FC0CC3FFCE5DF0709F449C053
:103E400008F055C08091E9028160CB3FDC4509F064
:103E500081CF8093E9027ECFC230EDE5DE0709F421
:103E600068C0A8F4C1158DE5D80709F452C0809147
:103E7000E9028360C130DD4560F38091E902982F4B
:103E8000909591708E7F892B90FB81F9E2CFC2369D
:103E9000EDE5DE0709F451C0C63AFDE5DF0709F498
:103EA00053C0C330DD4509F055CF80E043C0809159
:103EB000E80281608093E8024DCF8091E802826041
:103EC000F9CF8091E8028460F5CF8091E8028860A4
:103ED000F1CF8091E9028260BCCF0E946D0D80918C
:103EE000E8028068E7CF8091E802877FE3CF809186
:103EF000E9028E7FAECF8091E9028D7FAACF8091BB
:103F0000E8028F7BD7CF0E946D0D8091E8028F77FA
:103F1000D1CF8091E9028C7F9CCF8091E80282FB17
:103F2000992790F921E0922790FB82F990FB83F981
:103F3000C1CF81E00E9430140DCF9091E802892F0B
:103F40008F7E94FF8061B6CF9091E802892F8E7F9B
:103F500090FF8160AFCF81E00FCF8FE891E00197B4
:103F6000F1F700C0000008950E944A0708950F93DA
:103F70001F93CF93DF939091020181E09827909354
:103F8000C402282F291B2093C30290910201809321
:103F9000C502909102018093C202809102018111B9
:103FA00006C084EF8093330185EF80933201209126
:103FB0003301E22FE295EF70F0E061A12F7081E014
:103FC00090E0AC0101C0440F2A95EAF7342F3095F8
:103FD000362331A322A1242B22A320913201E22FE8
:103FE000E295EF70F0E031A12F7001C0880F2A95A3
:103FF000EAF7982F9095932391A392A1892B82A3FE
:104000000E94AD1F6091C50248EC52E0C3E3D1E0CD
:1040100002E311E0FA0126C02991822F82958F7068
:1040200090E0DC0190968C9190E02F7002C0959505
:1040300087952A95E2F78170D8019D918D01292FEE
:1040400022952F7030E0D90190962C9130E09F702E
:1040500002C0359527959A95E2F790E020FD92E011
:10406000892B81938E2F841B8617B0F2DF91CF911D
:104070001F910F910895CF92DF92FF920F931F939C
:10408000CF93DF9310E000E082E0C82ED12C809126
:10409000C502181748F0802FDF91CF911F910F9123
:1040A000FF90DF90CF900895C12FD0E0FE01ED5C2E
:1040B000FE4F8081E82FE295EF70F0E0E0A1F0E0A4
:1040C0008F7002C0F595E7958A95E2F7E170DE0101
:1040D000AE5CBE4F4C91A42FA295AF70B0E090960D
:1040E0008C9190E04F7002C0959587954A95E2F7C4
:1040F00080FD44C080E08E2BDE01A853BD4FEC91C3
:104100009E2F93709817C1F1EE0FEE0FE82BEC93F2
:10411000F090C402F10EEF70F0E0E854FE4FCA5385
:10412000DD4F80819881890F888320E0823064F0A0
:10413000EF2DF0E0E054FD4F80818F5F808360E0E1
:104140008F2D0E94B41F21E088818F3F64F4EF2DF2
:10415000F0E0E054FD4F80818150808361E08F2D3D
:104160000E94B41F21E08881082E000C990BB60133
:104170000E943E2D8883022B1F5F89CF82E0BBCF38
:104180004091C50250E06091C40270E060547D4FE0
:104190000E94A52D0895B0E0A0E0E1EDF0E20C94BE
:1041A000622D6C01D0E080E09091C202D91740F0FE
:1041B00081110E944914CDB7DEB7E8E00C947E2D42
:1041C000F090C302FD0E0F2D10E000541D4FF601BC
:1041D000ED0FF11DC081F8019081C91BEC2E1E145A
:1041E00044F09C2FC7FD90E0C91BC1110DC0DF5FDB
:1041F000DBCFEA94F80180818F5F808360E08F2DB0
:104200000E94B41F81E0EBCFCF5FF8018081815025
:10421000808361E08F2D0E94B41F81E0E6CFCF93B1
:10422000DF93EB0186319C4511F50E9493129A8130
:10423000992399F08A7A91E009F490E09093CA0268
:10424000811109C089E20E9445120E94D41280E0C7
:10425000DF91CF91089585E3F6CF8091CA02811155
:1042600004C089E20E944D12F0CF85E3FBCF81E0CC
:10427000EFCF0F931F93CF93DF93C42FD22FFC0167
:1042800082818823C9F04093CD020E94EC2590934F
:10429000CC028093CB0280E28C0F883040F4C77050
:1042A00081E001C0880FCA95EAF70E94720ADF9187
:1042B000CF911F910F9108951091CD02141332C028
:1042C0008091CB029091CC020E9404268436910505
:1042D00048F5C0E2CD0F1D17B9F080E2810F88309C
:1042E00040F4177081E001C0880F1A95EAF70E9428
:1042F000790AC83048F481E09D2F977001C0880F7B
:104300009A95EAF70E94720A802F0E94690AC830C3
:1043100070F6D77081E001C0880FDA95EAF70E9445
:10432000790AC5CF80E28C0F883008F6C77081E02B
:1043300001C0880FCA95EAF7F2CF0F939C01CB0119
:10434000243F4CE5340759F1A8F4293DFCE53F072B
:1043500001F12A3D4CE53407D1F1283D3C4591F46B
:1043600006E221EE41EE68ED7CE50E94392180E015
:104370000F910895263FFCE53F07E9F0B0F0273F95
:104380003C45F9F0FC018281882339F11092CD027D
:10439000EFCF07E225EE45EE69ED7CE5E6CF06E2DC
:1043A00021EE40EE64EF7CE5E0CF07E225EE44EE3F
:1043B00065EF7CE5DACF06E221EE42EE66EF7CE5C2
:1043C000D4CF07E225EE46EE67EF7CE5CECF08E2DC
:1043D00021E045EE6AED7CE5C8CF81E0C9CF1092BF
:1043E000B9008CE08093B8000895B0E0A0E0EBEF56
:1043F000F1E20C945F2DB82EEB010E94EC256C01CC
:10440000EE24E394F12CC431D10560F025E0E22ED6
:10441000F12CCF3FDC0731F0CE0164E170E00E9467
:104420002A2D7B0184EAA82E94E8992E1092BC00D4
:10443000A092BC000E94EC258C018091BC0087FFFB
:104440000DC08091B900887F883001F18091B9005A
:10445000887F8031D9F00FEF1FEF09C00E94EC2553
:10446000801B910B8E159F0540F30EEF1FEFCF3F82
:10447000DC07E1F2C6010E9404268C179D07B0F20A
:10448000C801CDB7DEB7EBE00C947B2DB092BB003A
:104490009092BC000E94EC258C018091BC0087FFAB
:1044A0000AC08091B900887F883111F0803499F674
:1044B00010E000E0E5CF0E94EC25801B910B8E15EB
:1044C0009F0558F3D2CF0F931F93CF93DF93EB0148
:1044D0008093BB0084E88093BC000E94EC258C0193
:1044E0008091BC0087FF11C02091B900287F81E036
:1044F00090E0283211F490E080E091958195910947
:10450000DF91CF911F910F910895CF3FDC0741F3C9
:104510000E94EC25801B910B8C179D0708F38EEFF2
:104520009FEFEECFB0E0A0E0E8E9F2E20C94622D5C
:104530006B018A017901B9010E94F521E6010C0D98
:104540001D1DC017D10711F097FF08C024E9209363
:10455000BC00CDB7DEB7E8E00C947E2DB7018991A1
:104560000E946322EECFB0E0A0E0E9EBF2E20C940F
:10457000622DC62F6A017901B8010E94F52197FDCD
:104580000CC0B8018C2F0E946322E601EC0CFD1CCC
:10459000CE15DF0511F097FF08C024E92093BC0079
:1045A000CDB7DEB7E8E00C947E2DB80189910E946A
:1045B0006322EECF84E98093BC0008958EE14A9B8C
:1045C00002C08150E1F74A9BFECF08955A9880E2DD
:1045D0008A95F1F75A9A0895FC013BE03A95F1F774
:1045E00098E020E080E031E040E14A95F1F7880F63
:1045F0004A9B02C08160232742E04A95F1F7000000
:1046000040E14A95F1F7915079F790E19A95F1F7E9
:1046100099B132E03A95F1F7000040E14A95F1F79F
:1046200092FB992790F992272081920F9083089509
:10463000A1E0B0E0EEE1F3E20C94642D19828C016C
:104640007C01E60EF11C0E151F0541F481E09981F5
:10465000911180E02196E6E00C94802D0E94DE22EC
:10466000CE0101960E94EC22F80181938F01EBCFDD
:10467000529A5A9A089552985A9AEA9AE9E6F0E0BC
:1046800080818F7C808308956150770B91E001C019
:10469000990F6A95EAF720E031E0911108C02223D2
:1046A00091F05A9A80E28A95F1F75A980895492F25
:1046B000482339F05A9A232740E24A95F1F7969514
:1046C000ECCF5A98F9CF5A98EDCFFF920F931F93E2
:1046D000CF93DF93EC018C01060F111DC017D1079A
:1046E00029F4CDB7DEB7E5E00C94812DF9900E9456
:1046F000E62268E08F2D0E944423F0CF1F920F9294
:104700000FB60F9211240F931F932F933F934F9344
:104710005F936F937F938F939F93AF93BF93EF9329
:10472000FF93CF93DF930F92CDB7DEB719820E942C
:10473000DE22CE0101960E94EC22082F06950695F6
:104740000695282F22952570902F9570290F922F6E
:10475000937026952695920F982797708981982BAC
:1047600009F05CC0063008F059C080E18A95F1F785
:104770005A9A529A82E08A95F1F700C05A9888E0D6
:10478000089F80011124D801AD5FBE4F1696ED91B0
:10479000FC9117973097A9F06091AE017091AF012D
:1047A00014962D913C911597260F371F11968D91D8
:1047B0009C911297680F791F13964C9113978C91C7
:1047C0000995F801ED5FFE4F6381662351F020915A
:1047D000AE013091AF0184819581820F931F0E94B9
:1047E00065230E94E62280E18A95F1F75A98529853
:1047F0005A9A80E18A95F1F7F801ED5FFE4F6081EA
:10480000662351F02091AE013091AF0181819281F8
:10481000820F931F0E9418230E94DE220F90DF91C7
:10482000CF91FF91EF91BF91AF919F918F917F9128
:104830006F915F914F913F912F911F910F910F9029
:104840000FBE0F901F9018950F931F93CF93DF9378
:10485000EC0106970CF04CC0F894529A5A9885E0F7
:104860008A95F1F700009C2F969595708C2F857096
:10487000980F892F83709695969523E0CC0FDD1FB6
:104880002A95E1F7980F8E01092B0E94E62200C0BD
:1048900068E0802F0E94442380E18A95F1F75298C6
:1048A0005A9A4A9B1EC087E090E04A991CC0FE01BC
:1048B000ED5FFE4F63816623F9F02091AE013091E8
:1048C000AF0184819581820F931F0E94182381116B
:1048D00013C0529A5A9A7894DF91CF911F910F91F9
:1048E000089500C0DECF019729F4529A5A9A78941D
:1048F00080E0F2CF00C0D9CF0E94DE2280E28A950C
:10490000F1F75A98529A80E18A95F1F7CD5FDE4F20
:104910006881662351F02091AE013091AF01898109
:104920009A81820F931F0E9465230E94E622789449
:1049300081E0D2CF9093C9018093C80108959093EC
:10494000D4028093D30208950E940E19811103C0EE
:104950008091CE020895E091D302F091D402309775
:1049600029F00190F081E02D0995089580E00895E7
:104970000E94A4240895E091D302F091D4023097CC
:1049800021F00280F381E02D099508952091D10254
:104990003091D2022817390771F09093D202809398
:1049A000D102E091D302F091D402309721F0068039
:1049B000F781E02D099508952091CF023091D00222
:1049C0002817390771F09093D0028093CF02E091BD
:1049D000D302F091D402309721F00084F185E02DCC
:1049E000099508959C012E5F3F4FAC01485F5F4FD2
:1049F00080E02417350709F40895F90191919F018A
:104A00009923B9F38F5FF5CF662349F0FC01329605
:104A100008962191261729F0E817F907D1F780E0C9
:104A2000089581E008959C01FC0132969FEF80E09B
:104A30004191461751F09F3F19F4411101C0982F41
:104A40008F5F8630A9F79F3F09F40895290F311D24
:104A500097FD3A95F90162830895FC013296089614
:104A60002191261303C0DF0111971C92E817F90763
:104A7000B9F708950E94132508950E942D250895E1
:104A8000029626E0FC0111922A95E9F7089508950F
:104A90000E9447250895811106C081E08093D502C8
:104AA0000E944825089582E0F9CF83E08093D502E3
:104AB0000E94482508950E944B25089581E0809327
:104AC000D5020E94482508950E945E250895089504
:104AD00008950E9468250895089508950E94672505
:104AE0000895CF930E946C250E9495180E946D2511
:104AF000C0E08C2F0E947217811105C0CF5FCA30B1
:104B0000C1F7CF91089581E0FCCF85B7806885BF5C
:104B100085B7806885BF08951F921FB61F92112424
:104B20008F939F93AF93BF938091D602811113C04F
:104B30008091080590910905A0910A05B0910B0597
:104B40004196A11DB11D8093080590930905A0937E
:104B50000A05B0930B05BF91AF919F918F911F9064
:104B60001FBE1F90189580911005843031F10E946E
:104B70009D081092D60288E190E020E40FB6F894E8
:104B8000A895809360000FBE2093600083B7817F5B
:104B9000846083BF83B7816083BF7894889583B72F
:104BA0008E7F83BF0FB6F894A895809160008861CE
:104BB00080936000109260000FBE08950E946D0DFA
:104BC0000E94A408089582E084BD93E095BD9AEF09
:104BD00097BD80936E0008952FB7F89480910805D3
:104BE00090910905A0910A05B0910B052FBF08957A
:104BF0002FB7F894609108057091090580910A0516
:104C000090910B052FBF08959C014FB7F8948091A8
:104C1000080590910905A0910A05B0910B054FBFB9
:104C2000821B930B0895CF92DF92EF92FF922FB7E2
:104C3000F894C0900805D0900905E0900A05F0901E
:104C40000B052FBFA7019601261B370B480B590BED
:104C5000CA01B901FF90EF90DF90CF90089578944A
:104C60001F921FB61F9211248F939F93AF93BF93F0
:104C70008091080590910905A0910A05B0910B0556
:104C80000196A11DB11D8093080590930905A0937D
:104C90000A05B0930B05BF91AF919F918F911F9023
:104CA0001FBE1F90189587E797E7909301088093A0
:104CB000000888E19AE00FB6F894A8958093600008
:104CC0000FBE90936000FFCF88E19AE00FB6F89492
:104CD000A895809360000FBE90936000FFCF8091F5
:104CE000E20208950895CF93DF93EC0181E0809371
:104CF000E9008FEF9091E800815095FD06C095ED99
:104D00009A95F1F700008111F5CF8091E80085FFB9
:104D100014C050E040E068E070E0CE010E948528B9
:104D20008091E8008E778093E80088E0FE01AAED8C
:104D3000B2E001900D928A95E1F7DF91CF9108954D
:104D40008093D7027093D9026093D80280911005A6
:104D5000843001F582E08093E9008FEF9091E800C4
:104D6000815095FD06C095ED9A95F1F700008111EF
:104D7000F5CF8091E80085FF0DC050E040E063E092
:104D800070E087ED92E00E9485288091E8008E77A0
:104D90008093E8000895BC0184E00E94A026089555
:104DA000BC0183E00E94A0260895089580910F051C
:104DB000811109C00E94152A0E94722A8091E20086
:104DC00084608093E200089510920F0508950E9478
:104DD0005E25089560910C0581E0611101C080E0BD
:104DE0000E94552508959091100581E0943009F0B6
:104DF00080E060910C050E945B25089542E061EC23
:104E000081E00E94912942E261EC82E00E949129B6
:104E10009091100581E0943009F080E060910C05DC
:104E20000E944B25089580911205833009F461C0DA
:104E300030F48130D1F1823009F49EC008958A3077
:104E400009F48AC08B3009F46FC0893009F050C072
:104E500080911105813209F04BC080911505909128
:104E60001605029708F044C08091E800877F809380
:104E7000E8008091E80082FF37C09091F3008091B4
:104E8000F200029731F48091F100813011F0863008
:104E900021F48091F1008093E2028091E8008B7709
:104EA0008093E8000E94C52923C080911105813AB2
:104EB000F9F48091E800877F8093E80080911505E0
:104EC00090911605892B61F468E08AED92E070E01C
:104ED0000E94D4288091E8008B778093E8000895A1
:104EE00060E090E080E0F3CF809110058111C1CFA8
:104EF000089580911105813AD9F780911505909117
:104F00001605892BA9F78091E800877F8093E80038
:104F10008091E80080FFFCCF809140018093F100F8
:104F20008091E8008E77BCCF80911105813201F726
:104F30008091150590911605892BD1F68091E80096
:104F4000877F8093E8000E94C52980911305809394
:104F500040010E946D0D089580911105813241F646
:104F60008091E800877F8093E8000E94C5298091A6
:104F700014058093E302089580911105813A09F0A8
:104F8000B7CF8091E800877F8093E8008091E800A8
:104F900080FFFCCF8091E302C1CF84B7877F84BFBD
:104FA0000FB6F894A89580916000886180936000A6
:104FB000109260000FBE80E890E00FB6F8948093E6
:104FC0006100909361000FBE0E94642508950E94C5
:104FD000152A0E94722AE2EEF0E0808184608083CC
:104FE00078940E94F12C089584E391E00E949F241C
:104FF000089580911005853031F480911005853039
:1050000019F00E94DE2508950E94B32580910E05B7
:10501000882399F30E947125882379F30E946F28D1
:105020000E946D0DEACF08950E9417280895292F38
:1050300033272330310519F168F42130310509F4A3
:1050400044C02230310509F445C090E080E030E0F2
:1050500020E025C02132310549F122323105A9F77E
:1050600080E490E02AE93AE061157105C1F082E33D
:1050700090E028E63AE06130710589F0E6CF9927A3
:105080008130910581F0009729F00297F1F6EDEE5D
:10509000F9E002C0E7E1FAE0849190E09F01FA01B3
:1050A000318320830895EBEFF9E0F6CF89E090E0BB
:1050B0002DE23AE06115710591F389E090E026E474
:1050C0003AE06130710559F3C0CF82E190E026E506
:1050D0003AE0E5CF8BE390E02BE13AE0E0CF80E1EE
:1050E00089BD82E189BD09B400FEFDCF8091D80061
:1050F0008F7D8093D8008091E00082608093E000F3
:105100008091E00081FDFCCF0895AF92BF92CF92D5
:10511000DF92FF920F931F93CF93DF936C01EB010C
:105120008A010E94E429F82E811123C0011511057E
:1051300039F0F80180819181C81BD90BC80ED91EA6
:10514000B12CA12C2097A9F08091E80085FD22C008
:105150008091E8008E778093E80001151105A1F099
:10516000F80180819181A80EB91EB182A08285E0EC
:10517000F82E8F2DDF91CF911F910F91FF90DF902F
:10518000CF90BF90AF9008950E94E4298823D1F278
:10519000F82EEFCFF60181916F018093F1002197F6
:1051A000FFEFAF1ABF0ACECFFC0180911705909197
:1051B000180586179707A0F06115710529F49091DD
:1051C000E8009E779093E80090E06115710551F436
:1051D000911108C08091E80082FF34C080E00895FA
:1051E000BC01F2CF809110058823C1F18530C1F157
:1051F0008091E80083FD30C08091E80082FDEACF15
:105200008091E80080FFE1CF8091F3002091F200CF
:10521000382F6115710519F02830310558F091E0EB
:105220002830310509F090E02091E8002E77209396
:10523000E800CBCF81918093F100615071092F5F1D
:105240003F4FE7CF80911005882341F0853041F032
:105250008091E80083FFBECF81E0089582E0089549
:1052600083E00895FC018091170590911805861739
:105270009707A0F06115710529F48091E8008E77F9
:105280008093E80090E06115710551F4911108C018
:105290008091E80082FF35C080E00895BC01F2CF24
:1052A000809110058823C9F18530C9F18091E8000B
:1052B00083FD31C08091E80082FDEACF8091E80053
:1052C00080FFE1CF8091F3002091F200382F61152B
:1052D000710519F02830310558F091E0283031057A
:1052E00009F090E08091E8008E778093E800CBCFC2
:1052F00084918093F1003196615071092F5F3F4F87
:10530000E6CF80911005882341F0853041F08091EF
:10531000E80083FFBDCF81E0089582E0089583E037
:105320000895982F973028F08F708093E90081E0DE
:1053300008959093E900242F762F50E0981731F0CC
:105340007091EC002091ED005091F00021FD02C021
:105350009F5FE8CF3091EB003E7F3093EB003091C0
:10536000ED003D7F3093ED003091EB0031603093E4
:10537000EB007093EC002093ED005093F00020912F
:10538000EE0027FDE5CF80E008958091110587FFAD
:1053900013C08091E80082FF06C08091E8008B77FF
:1053A0008093E80004C0809110058111F2CF089528
:1053B000809110058823D9F38091E80080FFF8CF11
:1053C0008091E8008E77ECCF2091E4003091E500E9
:1053D00095E6A9012091EC00822F817020FF06C084
:1053E0008091E80080FF06C080E008952091E800E9
:1053F00022FD1AC080911005882389F0853089F03C
:105400008091EB0085FD0FC02091E4003091E50014
:1054100042175307F9F29150E1F684E0089582E0D3
:10542000089583E0089581E008950E94842A0E94EF
:105430008C2AE0EEF0E0808181608083E8EDF0E08E
:1054400080818F77808319BCA7EDB0E08C918E7F2F
:105450008C9380818F7E808310920F0508950F9327
:105460001F93CF93DF930E94842A0E948C2AC8ED59
:10547000D0E088818F77888388818068888388815D
:105480008F7D888319BC1092100510920C05109224
:105490000E0510920D0500EE10E0F80180818B7F63
:1054A000808388818160888342E060E080E00E94A0
:1054B0009129E1EEF0E080818E7F8083E2EEF0E0E2
:1054C000808181608083808188608083F801808111
:1054D0008E7F8083888180618883DF91CF911F9147
:1054E0000F910895E8EDF0E080818F7E8083E7EDF5
:1054F000F0E080818160808384E082BF81E08093DE
:105500000F050E942F2A0895E8EDF0E080818E7F3C
:1055100080831092E20008951092DA001092E10068
:1055200008951F920F920FB60F9211242F933F935D
:105530004F935F936F937F938F939F93AF93BF939B
:10554000EF93FF938091E10082FF0BC08091E20016
:1055500082FF07C08091E1008B7F8093E1000E9471
:10556000F02C8091DA0080FF19C08091D80080FF74
:1055700015C08091DA008E7F8093DA008091D90087
:1055800080FF96C080E189BD82E189BD09B400FE3B
:10559000FDCF81E0809310050E94D6268091E10026
:1055A00080FF19C08091E20080FF15C08091E20069
:1055B0008E7F8093E2008091E20080618093E20020
:1055C0008091D80080628093D80019BC85E08093D8
:1055D00010050E94EA268091E10084FF2BC0809193
:1055E000E20084FF27C080E189BD82E189BD89B5E1
:1055F000982F917080FFFBCF8091D8008F7D809392
:10560000D8008091E1008F7E8093E1008091E200DC
:105610008F7E8093E2008091E20081608093E200BF
:1056200080910C05882309F449C084E0809310051B
:105630000E94F3268091E10083FF29C08091E2005F
:1056400083FF25C08091E100877F8093E10082E0A5
:105650008093100510920C058091E1008E7F80935D
:10566000E1008091E2008E7F8093E2008091E20071
:1056700080618093E20042E060E080E00E94912936
:105680008091F00088608093F0000E94E726FF91EF
:10569000EF91BF91AF919F918F917F916F915F91AA
:1056A0004F913F912F910F900FBE0F901F90189523
:1056B00019BC109210050E94E42670CF8091E3007F
:1056C00087FD93E090931005B3CF1F920F920FB612
:1056D0000F9211242F933F934F935F936F937F9378
:1056E0008F939F93AF93BF93CF93DF93EF93FF93EA
:1056F000D091E900DF708091EC00C82FC17080FD6F
:10570000C0E81092E9008091F000877F8093F0005C
:1057100078940E94A92B1092E9008091F000886093
:105720008093F000CD2BCF70C093E900FF91EF91F3
:10573000DF91CF91BF91AF919F918F917F916F91A9
:105740005F914F913F912F910F900FBE0F901F903F
:105750001895AAE2B0E0EFEAFBE20C94672D81E134
:1057600095E02091F100FC012193CF01F5E0893112
:105770009F07B9F70E9413278091E80083FF1EC19D
:1057800080911105909112059A3008F017C1E92F08
:10579000F0E0EB5FF14D0C94522D803899F0823897
:1057A00009F00CC1809115058F70873008F006C193
:1057B0008093E9008091EB0085FB882780F91092A7
:1057C000E90006C080910D0590910E05911182604F
:1057D0009091E800977F9093E8008093F1001092F9
:1057E000F1008091E8008E77E5C0882309F4D3C0EA
:1057F000823009F0E3C0809113058111D6C08091F9
:1058000015058F702FEF280F263008F0D7C0809332
:10581000E9002091EB0020FFC8C0933031F4809163
:10582000EB0080628093EB00C0C09091EB00906130
:105830009093EB0021E030E001C0220F8A95EAF757
:105840002093EA001092EA008091EB008860EACF92
:105850008111B4C0109113051F778091E300807807
:10586000812B8093E3008091E800877F8093E8009C
:105870000E94C5298091E80080FFFCCF8091E30061
:1058800080688093E30082E0111183E0809310052B
:1058900095C08058823008F091C080911305909196
:1058A00014058C3D23E09207A1F583E08A838AE208
:1058B00089834FB7F894DE01139620E03EE051E271
:1058C000E32FF0E050935700E49120FF03C0E295EE
:1058D000EF703F5FEF708E2F90E0EA30C0F0C79618
:1058E0008D939D932F5F243159F74FBF8091E8002E
:1058F000877F8093E8006AE270E0CE0101960E9403
:10590000D4288091E8008B778093E80057C0C09638
:10591000E7CF6091150570911605AE014F5F5F4F9F
:105920000E941428BC01892B09F448C09091E8001A
:10593000977F9093E80089819A810E943229E1CF74
:105940008038E1F58091E800877F8093E8008091BE
:105950000C058093F10045CF811130C09091130563
:10596000923060F58091E800877F8093E800909303
:105970000C050E94C52980910C05882311F084E054
:1059800005C08091E30087FDFACF81E08093100588
:105990000E94FE2613C080911305813079F481E0C6
:1059A000933009F080E080930E051092E900809119
:1059B000E800877F8093E8000E94C5298091E80075
:1059C00083FF0AC08091E800877F8093E800809180
:1059D000EB0080628093EB00AA96E3E00C94832DA9
:1059E0000895CF93809110058823A1F0C091E9001C
:1059F000CF709091EC00892F817090FD80E8C82BCA
:105A00001092E9008091E80083FD0E94A92BCF70DD
:105A1000C093E900CF9108950E94152A10921005B5
:105A20000895E8EDF0E08081806180838AE18A95C5
:105A3000F1F700C08091D90081700895991B79E039
:105A400004C0991F961708F0961B881F7A95C9F70E
:105A500080950895AA1BBB1B51E107C0AA1FBB1F5D
:105A6000A617B70710F0A61BB70B881F991F5A95EA
:105A7000A9F780959095BC01CD01089597FB072E5D
:105A800016F4009407D077FD09D00E942A2D07FC58
:105A900005D03EF4909581959F4F0895709561953E
:105AA0007F4F0895EE0FFF1F0590F491E02D0994AC
:105AB0002F923F924F925F926F927F928F929F921E
:105AC000AF92BF92CF92DF92EF92FF920F931F930C
:105AD000CF93DF93CDB7DEB7CA1BDB0B0FB6F894BD
